:020000040000FA
:10000000405400205D200000BB4F00003120000064
:1000100031200000312000003120000000000000ED
:10002000000000000000000000000000B51B000000
:1000300031200000000000003120000031200000CD
:10004000311C0000311C0000311C0000311C00007C
:10005000311C0000311C0000311C0000311C00006C
:10006000311C0000311C0000311C0000311C00005C
:10007000311C0000311C0000311C0000311C00004C
:10008000311C0000311C0000311C0000311C00003C
:10009000311C0000311C0000311C0000311C00002C
:1000A000311C0000311C0000311C0000311C00001C
:1000B000311C0000311C0000311C0000311C00000C
:1000C000311C0000311C0000311C0000311C0000FC
:1000D000311C0000311C0000311C0000311C0000EC
:1000E000311C0000311C0000311C0000311C0000DC
:1000F000311C0000311C0000311C0000311C0000CC
:1001000053B94AB9002908BF00281CBF4FF0FF317E
:100110004FF0FF3000F00CB8ADF1080C6DE904CEE3
:1001200000F008F8DDF804E0DDE9022304B07047D0
:10013000704700BF2DE9F04F07468C460846099EE0
:1001400015463C461946002B40F0C6808242B2FA62
:1001500082F746D94FB1C7F1200E24FA0EFE00FAFD
:1001600007F3BD404EEA030CBC404FEA15481FFAA6
:1001700085FEBCFBF8F9220C08FB19C309FB0EFA3B
:1001800042EA03439A4528D9EB1809F1FF3004D21B
:100190009A4502D9A9F102002B44A3EB0A03A4B2A9
:1001A000B3FBF8F208FB123302FB0EFE44EA0344F1
:1001B000A64514D92C1902F1FF3303D2A64501D963
:1001C000931E2C44A4EB0E0443EA00401EB1FC40F5
:1001D000002334607360BDE8F08F4846DDE71346C6
:1001E000F0E702B9FFDE87BB831A01214FEA154E03
:1001F000AAB2B3FBFEFC200C0EFB1C330CFB02F876
:1002000040EA0343984563D9EB180CF1FF3004D260
:10021000984502D9ACF102002B44A3EB0803A4B229
:10022000B3FBFEFC0EFB1C330CFB02F244EA03445E
:10023000A2424FD92C190CF1FF3304D2A24202D9A9
:10024000ACF102032C44A41ABEE7C7F1200C20FA3B
:100250000CF800FA07F324FA0CFCBD404CEA030248
:100260004FEA154EABB2B8FBFEFC110C0EFB1C8026
:100270000CFB03F941EA0040814504FA07F423D955
:1002800028180CF1FF3104D2814502D9ACF10201EA
:100290002844A0EB090092B2B0FBFEFC0EFB1C0050
:1002A0000CFB03F842EA004398450FD9EB180CF118
:1002B000FF3204D2984502D9ACF102022B44A3EBE1
:1002C000080342EA014191E76146E2E76246F6E748
:1002D0006046A2E76346B6E7834205D90EB1C6E998
:1002E00000700021084676E7B3FA83F181B98342B2
:1002F00001D3BA420AD8BC1A60EB030301209C4622
:10030000002E68D0C6E9004C002164E70846F7E7F4
:10031000C1F1200C8B4022FA0CF41C4302FA01F5C7
:1003200000FA01F327FA0CF220FA0CFB4FEA144909
:100330001343BBFBF9F81FFA84FE09FB18BB1A0C28
:1003400008FB0EFA42EA0B42924507FA01F73ED942
:10035000A21808F1FF3004D2924502D9A8F1020098
:100360002244A2EB0A029BB2B2FBF9F809FB182265
:1003700008FB0EFE43EA024296452AD9A21808F16C
:10038000FF3304D2964502D9A8F10203224443EA7E
:100390000040A0FB0593A2EB0E029A42CE4698467F
:1003A00002D306D14F4504D2B9EB050E63EB040826
:1003B000013886B1B7EB0E0362EB080707FA0CFCB5
:1003C000CB404CEA0303CF40C6E900379CE74046E8
:1003D000C7E74346DBE73146FDE600007FB5304B1B
:1003E000304AC3F800263048C3F804264921C3F830
:1003F0000826C3F80C26C3F81026C3F81426C3F841
:100400001826C3F81C2604F043FD00F07BF82748AB
:1004100000F05CF828B9254A2548452104F038FD4C
:10042000FEE701A800F0CAFC224B1B68834204D0FF
:100430002148452104F02CFDFEE7039A1F4849217D
:1004400004F026FD1E48492104F022FD4FF44041EE
:10045000002004F073FF20B11A48452104F018FD74
:10046000FEE769469DF8080000F03CF8009B039CFD
:100470001C44019B1D8900F05DFF66194FF02002AE
:10048000EFF3118382F31288BFF36F8F635983F305
:100490000888736898470C48452104F0F9FCFEE78A
:1004A000000001403546526E90730000A9730000B1
:1004B000BC73000064010020DB730000FE730000C9
:1004C0002D740000527400008574000010B5044CB7
:1004D000236813B904F008F82060206810BD00BF3D
:1004E0006001002008B5024638B1054800234521C7
:1004F00004F0CEFC6FF0150008BD0860FCE700BFFB
:10050000A874000002484FF4C05103F0B1B800BF16
:10051000280F00202DE9F04FF9B0DDE98448DFF81D
:10052000E8A138A8DAF8006017461D4606F0B0FAD0
:10053000002138A803F0ACF93CB1B8F1000F04DD9C
:100540004246214638A806F0A7FA7B89B7F808800A
:100550009844FB684FF000099844C8454BD80DA952
:1005600038A806F0D6FA869B23B120220DA918469A
:1005700004F058FD002300932A464FF6FF733946D6
:1005800007A804F043F90446002840F0B680DFF8DD
:100590007C9180464FF0FF370DF1160305AA06A99E
:1005A00007A804F07FF9041EC0F2A78040F09880ED
:1005B000BDF816B0BBF1100F34D1BDF81480B8F1FE
:1005C000200F40F098800699434638AA284604F048
:1005D0006DFC0446002840F09080424638A90DA8E2
:1005E00004F0ABF904464A4B1B68834240F0858017
:1005F0004FF00108D0E7DDF80CB2829AA8EB0903AE
:100600009B4528BF9B465B464946284604F04EFC66
:100610000446002871D182995A4638A806F03CFA5F
:10062000D9449AE7BBF1010F36D1BDF81430202B25
:1006300061D8069938AA284604F038FC04460028F8
:100640005BD19DF814B0BBF1200F03D94FF0FF34FC
:100650002746A1E7D9F800302E4F0393039B9C4215
:10066000F4DA1DA806F014FA00211DA803F010F911
:100670007A6857F8081B12681DA806F00DFA15A92C
:100680001DA806F046FA5A4638A915A804F0B9FC88
:100690000028DDD00134E1E7BBF1200F7FF47CAF0F
:1006A0007B1C3FF479AFD9F80030BB4215DDBDF8B3
:1006B0001430B3F5807F1ED1069938AA284604F07D
:1006C000F5FB0446C8B9FFB2BDF81430009738AA4C
:1006D00059460DA800F020F806464FF0FF375BE7BB
:1006E000B8F1000F0DD00A4B1B68B34201D0DAF805
:1006F0000060344601E04FF0FF34204679B0BDE899
:10070000F08F0124F9E700BF00000020E87000002E
:1007100064010020EC7000002DE9F04F9846ADF523
:100720004B7D6B4B9DF850631D68074627A88A4692
:10073000914606F06AF9674B53F83640029403EB92
:10074000C6038AAA5B6819680C443023214602A8B4
:1007500004F0F1FE68BB029B8A9A13449C4228D1A4
:1007600029AA214602A804F0FAFE10BB0DF1B00B35
:100770005A46214602A804F0F2FE0646C8B929A846
:1007800005F04DFA029B28909C4212D1CDE9006BF6
:100790003346324629A927A806F0F3F848B927A816
:1007A00003F014F828B929A805F039FA80452890F3
:1007B0000AD027A806F033F927A806F030F9284612
:1007C0000DF54B7DBDE8F08FB8F5807F02D04FF07E
:1007D000FF35F1E7BAF1200FF9D18AAA494627A8D7
:1007E00003F018F804460028F1D19DF82733BC2BFC
:1007F000EDD10DF5A4780390DF2645460CA806F050
:1008000047F900210CA803F043F820220DF207312C
:100810000CA806F041F9042203A90CA806F03CF943
:1008200004A90CA806F075F91F2E9DF80F30D4BF4F
:10083000B1464FF02009013340464A4604A9A6EBD1
:1008400009068DF80F3004F0EDFB002EC844D5DC0E
:1008500028468AAE2A46DF23117816F801CB013BE1
:1008600081EA0C0102F8011BF6D12B7803F07F031B
:100870002B7010F8016B002EA9D10134BE2CF8D1D9
:1008800095F8BE30012BA2D10CA806F001F9314633
:100890000CA802F0FDFF104908220CA806F0FCF895
:1008A000394620220CA806F0F7F820220DF2072185
:1008B0000CA806F0F1F804A90CA806F02AF92022E9
:1008C0000DF2073104A804F038F8054681E700BFAF
:1008D00000000020EC700000CE7400002DE9F04113
:1008E00086B00223DFF86C80ADF800300D466F460D
:1008F000002617F8010B01A901F076F80446A0B90B
:1009000001988168102302AA103904F0CFFA044636
:10091000019804F0CAFA44B91022414602A804F032
:1009200070FB40B12EB14FF0FF34204606B0BDE859
:10093000F0810126DDE7019804F014FD0423A0F105
:1009400008012A46019804F0B1FA0446019804F01F
:10095000ACFAEAE7807300002DE9F041384B88B02B
:10096000064600200D461C6803F045FF06A9C0B2EC
:1009700001F03AF8002857D1294603F03CFF2C2417
:1009800007A9C0B204FB056401F02EF8002836D098
:100990004FF02C0808FB05F806EB0807396911F041
:1009A000100137D14FF480730193264B00932246F8
:1009B000CDE90311069B02910846FFF7ABFD044603
:1009C000214B56F8082006989A420CD13A89FB68C8
:1009D000D1438B4207D813448268934203D21B4B06
:1009E0001B68A3421DD045B38268002104F096FA2B
:1009F000174A1848452104F04BFA012411E00798E2
:100A000004F0ACFA0746079804F04FFA631EE21CA4
:100A100093420DD1002DF0D00699304604F087F8AE
:100A20002C46069804F041FA204608B0BDE8F08153
:100A300013F8011FB942EBD0AAE7074AD9E700BF74
:100A400000000020282700203DB8F3966401002014
:100A5000D6740000E8740000E074000073B50D4621
:100A6000044600212846CDE9001104F01FF830B3F8
:100A7000164E2368B34203D101AA204603F0ABFF10
:100A8000E36AB34204D16A460121204603F0A3FF82
:100A9000DDE90032934288BF0193019BAB60019A6C
:100AA0002946204600F034FB094B1A68002A03DD72
:100AB0000848572104F0ECF9002002B070BD05F1A0
:100AC0000801FFF70BFFAB680193E8E73DB8F39629
:100AD000C80D0020107500002DE9F84FDFF870B048
:100AE0001C4C1D4D884691469A4600260B9B9E4203
:100AF00001D300200FE00B9B154A9F1BB7F5806FB9
:100B000028BF4FF480673B4606EB0A01404604F0DD
:100B1000CDF910B10120BDE8F88F0A993B465A463D
:100B20007118484604F0DEF90028F3D1C4F80056E5
:100B30003E44C4F80456C4F80856C4F80C56C4F829
:100B40001056C4F81456C4F81856C4F81C56CDE70D
:100B5000C8010020000001403546526E2DE9F043E7
:100B60008E4B1E688E4B43620F468E4B03650021F1
:100B700085B00446084603F03EFE04F12001C0B2F1
:100B800000F032FF0121002003F035FE04F14C019A
:100B9000C0B200F029FF0546204603F05DFF804605
:100BA00068B900221146204603F0FDFE804600B3DE
:100BB0007D480022572104F06BF9012391E07B4826
:100BC0008022572104F064F90123984584F85830B5
:100BD000E7D194F858308DF80730042B00F2848068
:100BE000012B00F2888000F09F80FF2384F85830AA
:100BF0009AE0204600F0A4F90028DED0684603F011
:100C00004CFF6946204603F0E7FF18B168484246AA
:100C10005721D0E7684603F049FF80F001016A469A
:100C2000C9B2204603F0BFFE02460028C0D1684684
:100C300003F03CFF804660BB69462046FFF70EFF8D
:100C40009DF8073084F85830033B012B06D8404606
:100C500004F010F810B1FF2384F858309DF80730E5
:100C6000023B022B0BD8002003F0F2FF38B1FF2328
:100C700084F858304F48452104F00AF9FEE794F80B
:100C80005830FF2BF6D06A460021204603F08BFE39
:100C900093E79DF80790B9F1010F17D1104602F0C4
:100CA00015FB831E022B80460DD849462046FFF7D0
:100CB00053FE414B1B68984205D001280CBF4FF0F2
:100CC00001084FF0050884F8588082E7012120468A
:100CD000FFF742FE384B1B6898420CBF9DF8073067
:100CE000052384F8583074E7052B7FF47EAF00208D
:100CF00003F0C0FF13E069462046FFF7AFFE94F80B
:100D00005830DA1E012A05460CD8002003F0B2FF45
:100D1000054600287FF469AF002003F099FF0546DF
:100D200010B162E7022BF7D094F85830FF2B04D1B2
:100D30002048452104F0ACF8FEE7012B06D06A46B6
:100D40000021204603F02FFE0546D0B900212046A1
:100D5000FFF702FE0646DFF86080D8F800309842C0
:100D60000FD110220021684604F067F9206A03F0D1
:100D70004BFD3871236AD8F800605B68BB603C604B
:100D80000025E06C04F091F8206A04F08EF8002D44
:100D900014BF2846304605B0BDE8F08300000020AF
:100DA000C8050020C8090020817500003F750000BB
:100DB000AD750000D77500006401002038B5064D00
:100DC000044660220021284604F037F921462846CF
:100DD000FFF7C4FE38BD00BF6801002073B516469A
:100DE0001C4633B3436A5D686379012B15D101BB9F
:100DF0001F4B22681B689A4298BF0025002003F011
:100E0000FAFC01A9C0B200F0EFFDF0B10125019894
:100E100004F04BF8284602B070BD022B09D12368BC
:100E2000012B08D9124A1268934202D8B1FA81F113
:100E300049090025E2E7FCD10029DFD00129F8D1DA
:100E40002179023918BF0121F3E7294601982023AF
:100E5000324604F02BF805460028D7D1002CD6D016
:100E6000356804482D1A18BF4FF0FF35CFE700BF93
:100E7000040000203DB8F3962DE9F04F074685B0F9
:100E80000C4601460020164603F05EFD051E51DBB0
:100E90003846E46D03F065FD5FFA84F905F1FF382B
:100EA00009FB08084FF0000A4FF0010B4FF0FF3428
:100EB0009DB9BAF1010F03DD2048452103F0E8FF99
:100EC000631C06D07F2C2ADC013440F2011334600D
:100ED000B380284605B0BDE8F08F6B1E00930DF17E
:100EE0000F0201234146384603F0E0FF031E019341
:100EF00022DB01220DF10F01384604F047FA019B75
:100F000040B15B4501D00AF1010A009DA8EB090838
:100F10009B46CDE7B4F1FF3F08BF2C46F5E702231F
:100F2000803C7371631004F00104013301343360B9
:100F30003471CEE70725CCE70125CAE7E375000049
:100F4000816A426D914238B508D0531C8B4205D05E
:100F50001348572103F09CFF002038BD80291CD97D
:100F600010485721F6E7446A056D04EBC30405EB0E
:100F7000C30564686D68AC4202D00B485721E9E7AD
:100F800001339A42EFD1914205D9436A03EBC20281
:100F90005368A342F1D10120DFE700231C46F0E7AC
:100FA000067600003E7600006D76000000B589B040
:100FB00004A9022004F050FA9DF81020012A41D023
:100FC000254B2649032A18BF0B469DF81320029291
:100FD0009DF8122001929DF811202148009249218C
:100FE000204A03F055FF06A9052004F035FA9DF8C4
:100FF0001820012A28D0184B1849032A18BF0B467D
:101000009DF81B2002929DF81A2001929DF819204C
:1010100000921348144A492103F03AFF9DF810301A
:10102000012B13D19DF81230032B0FD19DF81830EE
:10103000012B0BD00D48492103F02AFF022009B0F3
:101040005DF804FB0A4BC0E7094BD9E70948492181
:1010500003F01EFF0020F2E79E760000A476000059
:10106000B6760000A8760000F7760000077700004B
:10107000997600002677000070B54B6814461E4A2A
:1010800003F0FF23934286B006460D462FD10B682E
:10109000012B2CD104A9204602F0C4F89DF81020A1
:1010A000012A26D0154B1649032A18BF0B469DF876
:1010B000132002929DF8122001929DF811200092B7
:1010C0001048114A492103F0E3FE9DF81030032B2C
:1010D0000DD12146304603F02AFD204604F0AFF939
:1010E000A968204603F050FC204602F07BF806B0C9
:1010F00070BD064BDBE700BF000100049E760000D8
:10110000A4760000B6760000F7760000997600001D
:101110002DE9F04F054689B081480C464921174614
:1011200003F0B6FE6B6A01225E68002333449F42DF
:10113000114602F10102F9D8DFF8E8A12046CAF809
:10114000001003F0B3FC08B3E86D03F0F8FBAF6ADE
:101150000023013F3344834201D2013FFAE7DAF82A
:101160000030BB4212D37048572103F091FEDAF8E9
:1011700000206E4807FB06F302FB0662572103F0CE
:1011800087FE0123E37109B0BDE8F08F06A90220B4
:1011900000F02AFC07A9052000F026FC079A21464A
:1011A0002846FFF769FF6379012B08D1DAF8007050
:1011B000DFF87CB1DAF80030A7B9012323604FF0E3
:1011C0000203DFF86C8163710127DAF80030DDF883
:1011D00018909F424BD9484603F067FE079803F0EA
:1011E00064FED0E7226801339B1A9F423DD86B6AA8
:1011F000DDF81880196853F8370003EBC703012A9C
:1012000053F8083CA3EB0103A0EB0109029312D1B0
:10121000E268079B022A0AD041462846039303F05E
:1012200086FC22464146284603F0B7FC039B19463C
:10123000284603F07CFC32464946404603F075FCE4
:10124000029B42464146CDE900962846FFF744FC02
:101250002146284603F037FC23680133236020B180
:10126000DBF800300133CBF80030013FA2E7236800
:101270009F4252D36A6ADDF81CB052F837100491CD
:10128000FB0011680391083B296DC8580968411A91
:101290000291217901293ED1D158039B3246C91AC6
:1012A0004846059103F041FC0599029B00914A468E
:1012B000594601962846FFF70FFC2146284603F0C1
:1012C00002FC4FF00203237120B1D8F80030013343
:1012D000C8F8003002993246584603F026FC029BBB
:1012E0000093DDE9032349469B1A01965A46284696
:1012F000FFF7F2FB2146284603F0E5FB23680133A4
:1013000023604FF00103237138B1D8F80030013366
:10131000C8F8003001E00229DCD0013755E700BFF2
:101320003D770000040000206677000095770000FC
:10133000C80D0020164A4FF0FF3301215160C2F85A
:101340004833C2F8083302F5C0425160C2F848334E
:10135000C2F8083302F598325160C2F84833C2F837
:101360000833A2F508320021C2F80015C2F808338C
:1013700002F51832C2F80015C2F80833A2F510427F
:10138000C2F808354FF08042C2F80833704700BFFA
:1013900000B000400B6801330B60014B1B6818471D
:1013A00008000020014B1860704700BF08000020B3
:1013B00007B50B46002102460191034801A900F040
:1013C000E5F803B05DF804FB951300002DE9F84F34
:1013D000B0F8189019F00808044693460DD001297A
:1013E0000CBF49F0100949F02009A0F818908BF3C0
:1013F0001188BFF36F8FBDE8F88F09F00709022944
:1014000007D1204603F098FC0028F0D00128238B58
:101410004ED16769218B002F15DA256821F007016D
:10142000C4E9008841F0010121830026218B01F0ED
:10143000070ACA4502D0A368002B5AD10DB9002E65
:1014400071D0002356E001F007035A1F012A1ED86D
:1014500021F00701062B256889B2C4E900880AD16A
:101460003DB1638B2A46126801339BB2002AFAD140
:10147000638341F002012183204603F05DFC0646B0
:101480000028D3D0238B43F020032383CDE7042B04
:101490000CD121F0070189B22183204603F04CFCD6
:1014A00005460028C1D041F0200121830025BCE77A
:1014B000032809D1226923F00703166843F00603C5
:1014C000238300252F46B1E7042806D1226923F0A3
:1014D0000703566843F00403F2E7052806D12269A2
:1014E00023F00703966843F00503E9E700252E463D
:1014F000E8E7012341F0080121838BF31188BFF352
:101500006F8FFBB985BB16B11F492046B0474FF01E
:101510002003EFF3118B83F31288BFF36F8F238BBC
:1015200023F008032383238BDA0625D523F0100349
:1015300023830121B4F8189009F0070900297FF4EA
:101540005EAF54E7A1680029DCD0D1F80090D1F853
:1015500004B03B4652462046D847B9F1000FD1D0DF
:101560004946D9F80090F2E729463B4652462046C4
:101570002D6803F0FDFBC5E713F020011EBF23F02B
:10158000200323830221D5E79D4D00002DE9F04F74
:101590008FB01D46531E01908A4602934FF00009FA
:1015A000029B5878252803F1010421D14FF0000C4B
:1015B00018464FF0FF3702306146CDF80CC03C466C
:1015C0000A2602780290392A00F1010058D81F2A11
:1015D00018D8002A00F0F681019B51462520984733
:1015E000029B51461878019B984709F10209D7E7F9
:1015F000002800F0E781019B5146984709F1010955
:101600000294CDE7A2F12003192BE5D80FF2040EC6
:101610005EF823F07D160000D9150000D9150000F2
:101620007D160000D915000001170000D915000033
:10163000D9150000D9150000D91500004317000086
:101640007D160000D9150000571700000F17000085
:10165000D91500001B1700003717000037170000CE
:101660003717000037170000371700003717000042
:101670003717000037170000371700009446A0E71F
:10168000582A00F01B81A2F163035FFA83FEBEF1CA
:10169000170FA1D8172B9FD80FF2040E5EF823F076
:1016A0001F1900007D170000D9150000D915000092
:1016B000D91500005D1700007D170000D915000046
:1016C000D91500005D170000D9150000D9150000DC
:1016D000D915000067180000D9150000D9150000C1
:1016E000FF180000D91500007D170000D915000073
:1016F000D915000067180000D91500005D1700001B
:10170000019B51462520984709F1010948E7039BB1
:1017100003F0FE030393002753E7002C0BDA002F9E
:101720000BDA039B002B00F0498124EAE47406FBEA
:101730000424303C45E7002FF7DB06FB0727303F4A
:101740003FE7002F55F8043B01DB1F4639E71C1E1D
:10175000BFF637AF64420223039332E7682A03D10E
:10176000682906D148212CE76C2A02D16C2900F0A7
:10177000278100297FF430AF114622E77A2907D16B
:10178000752A05F104062D6862D14FF000080DE0BE
:101790006C29F5D04C29F3D1EB1D23F007031E462D
:1017A000752AF6E8020107D1D3E90058BCF1200FF1
:1017B00051D1864B013C09E005468846B8F1000F3F
:1017C000F4DA6D42824B68EB4808013C00930DABA4
:1017D00005934FF0000B284641460A220023CDF81E
:1017E00010B0FEF78DFC059BCDF81C80303203F85D
:1017F00001292846CDE90535414600230A22FEF796
:101800007FFC069B0A2B079B73F100030BF1FF3B48
:1018100005468846DFD2049B049AC3F1010B0EAB48
:101820009D18002FA5F1040504DA039B13F0010FA6
:1018300018BF2746039BA7EB0B08B8F1000FD4BFD6
:10184000A4EB0B04E41B9B0700F18180274677E0A3
:101850004FEAE578B2E7BCF12B0F0ABF5D4B5E4B58
:1018600004F1FF34B2E7702A28D12E46002356F83F
:10187000041B00295CD059480090023C02F0600231
:10188000A2F139080DF1340E002501F00F02092AEA
:1018900088BF424430320EF8012910294FEA111254
:1018A00042EA03724FEA131073F1000305F1FF3CA3
:1018B00021D20EABC5F1010B1D44B2E76C2904D156
:1018C0002E46002356F8041B08E04C29F8D10735B2
:1018D00025F007052E466B6856F8081BBCF1230F50
:1018E00006D13F4D3D4812F0200F08BF2846C3E700
:1018F00039480090C2E7654611460346C5E72E46C3
:1019000056F8045B284603F069FB002F834602DB90
:10191000B842A8BFBB46304B009300278AE72E464B
:101920004FF0010B56F8043B8DF8203008ADF2E77C
:101930002C4D4FF0050BEEE7019B514620209847B8
:10194000013FF9D524EAE473013C9944E41A009B71
:10195000A9EB030904E000935146019B9847009BC3
:1019600009EB030713F8010B0028F4D1C146B9F1C4
:10197000010913D528EAE878D946B9F1010912D549
:10198000BBF1000FA8BFD8442546013D11D5002C5E
:10199000A8BFA04408EB0709354601E6019B514664
:1019A00030209847E3E715F8010B019B5146984713
:1019B000E3E7019B514620209847E6E70123CBE669
:1019C0004C21FEE548460FB0BDE8F08F507C00008A
:1019D000D4780000D6780000A67F0000DB780000F5
:1019E000D8780000DE7800000C4B1B6870B573B12E
:1019F0000B4A15680022AA4202DB6FF0010070BD9D
:101A00001C4613F8106B864204D00132F3E76FF0E6
:101A10000C00F4E70C600020F1E700BF0C00002090
:101A20006871000070B588B005460C46C0B26946C2
:101A30001646FFF7D9FF00281FDB009BEBB15A6861
:101A400002929A682168D8680195CDE903260022A0
:101A5000CDE90612059202F047FD0546009803F015
:101A600024FA6DB12846084901AA03F0E6FB07985D
:101A700008B9059B236008B070BD6FF01500FAE748
:101A80006FF01200F7E700BF6F4F0000014910220E
:101A90000A60704710ED00E072B6494081F311888A
:101AA00020BF80F3118862B6704700BF37B5054686
:101AB0000C46C9B18B680093D1E900230E4845213B
:101AC00003F0E6F963690093D4E903230B48452149
:101AD00003F0DEF9E2690A48452103F0D9F9A26969
:101AE0000848452103F0D4F92146284603B0BDE853
:101AF000304002F023BD00BFE478000018790000F8
:101B00004C7900006079000043B2002B08DB012211
:101B100000F01F0002FA00F05B09024A42F82300BD
:101B2000704700BF00E100E0054B420900F01F00D4
:101B300053F82220012303FA00F01040704700BF41
:101B400000E100E043B2002BA8BF03F1604301F1C4
:101B50000101B8BF064B4FEA4111ACBF03F5614329
:101B600000F00F00C9B2B4BF195483F800137047D6
:101B700014ED00E030BFFFF7FDBF00BF0B4A08B512
:101B80000B4B22F07F029A60BFF34F8FBFF36F8F32
:101B9000D3F8882022F47002C3F8882002F024FDD4
:101BA00002F068FD00F04EFA02F02AFD000000008D
:101BB00000ED00E01EF0040F0CBFEFF30880EFF320
:101BC0000980816911F8021C0229FFD001B503F0D8
:101BD000ECF901BD10F1160F074B08D0984208D35D
:101BE0002033834205D98B4203D904487047203300
:101BF000F9E70020704700BF402C0020602C002037
:101C000004462025084611461A46084B83F30988E6
:101C100063B64FF0000383F31188BFF36F8FA047C3
:101C200085F31188BFF36F8FFEE700BF605400207B
:101C300001B5EFF30580A0F110004FEAC0000449A0
:101C4000014409C99847BDE801400249084700001E
:101C5000086F0000591C0000704700BF2DE9F041DB
:101C6000324C0746884632484521154603F010F9A4
:101C7000A36ADE0603D52F48452103F009F9A36ABC
:101C80001C0703D52C48452103F002F9274CA36A11
:101C9000980728D46FF01506244CA36ADA0703D5F9
:101CA0002648452103F0F4F8A36A9B0603D524488F
:101CB000452103F0EDF81D4B9A6AD40628D49A6AA0
:101CC000900725D40020194B9A6A920642BF5A6A9F
:101CD00022F400525A629A6A42F0FF029A6200238A
:101CE0002B70BDE8F0814521164803F0D1F8666BF2
:101CF000A36A1906CED514483246452103F0C8F828
:101D0000B8F1000FC8D0A36A23F08003A362C3E731
:101D10005B681905D6D539463046FFF75BFF0028CA
:101D2000D0D080F309880220CDE700BF00ED00E0AD
:101D300093790000AE790000E6790000367A000061
:101D40005A7A0000FE7900001B7A000010B51D4C85
:101D50001D48452103F09CF8A36A9B0103D51B484D
:101D6000452103F095F8A36ADC0103D51848452105
:101D700003F08EF8134CA36A180303D515484521C8
:101D800003F086F8A36A590303D51348452103F0ED
:101D90007FF80C4CA36A9A0303D51048452103F041
:101DA00077F8A36ADB0303D50D48452103F070F8EB
:101DB000044A936A6FEA03436FEA13439362002075
:101DC00010BD00BF00ED00E08E7A0000AB7A00008D
:101DD000C37A0000E27A0000057B00002F7B000040
:101DE0004E7B000070B5234C06460D462248452127
:101DF00003F04EF8A36AD90403D52048452103F027
:101E000047F8A36A1A0503D51D48452103F040F899
:101E1000184CA36A9B0510D51A48452103F038F8E1
:101E2000A26BA36A180408D51748452103F030F8BF
:101E30001EB1A36A23F40043A3620E4CA36A5905A2
:101E400003D51248452103F023F8A36ADA050BD520
:101E50000F48452103F01CF8064A936A002043F41A
:101E60007F439362287070BDA36A9B04F4D5094830
:101E70004521EFE700ED00E07E7B0000997B00004C
:101E8000E6790000AF7B0000CD7B0000E77B00001F
:101E9000077C00005A7A00002DE9F041554B5F683D
:101EA0008AB00D46C7F30804002686F31188BFF3F5
:101EB0006F8F02F07F43B3F17F4F07D102F00C0325
:101EC000082B05D14C48452102F0E2FF354603E0DE
:101ED000120701D4054601264FF00008E31E8DF8D5
:101EE0000780092B73D8DFE803F005676B64727213
:101EF0007272726F3F4F4148452102F0C9FFFC6A80
:101F00008DF8078014F0020405D03D48452102F009
:101F1000BFFF002406E0FB6A002B1DDA394845218B
:101F200002F0B6FF9DF807309BB92022294602A88F
:101F300003F078F8099B002E56D0C3F3080222B9AB
:101F40006FEA53236FEA4323099302A92046FFF760
:101F5000ADFD0AB0BDE8F081FB6A5B00E2D52A481E
:101F6000452102F095FFAB6933F8022C4DF6027360
:101F70009A420AD097F8283073B10DF10702012177
:101F80002846FFF76BFE0446CCE72A681F48452128
:101F900002F07EFF2C68C5E797F829302BB10DF1D0
:101FA00007010120FFF71EFFEDE77B8D9BB2002BA1
:101FB000B8D0FFF7CBFEE6E70DF107020021DFE71F
:101FC0000DF107010020EDE7114845219FE7114978
:101FD000114A124817F4F87F08BF0A46A4F110030B
:101FE000452102F055FF94E723F4FF7323F001032A
:101FF000AAE700BF00ED00E0527C0000827C0000F8
:102000009E7C0000C47C0000D77C0000FB7C0000AC
:102010001C7D0000247C0000397C0000457D000010
:10202000024A536943F010035361704700ED00E02A
:10203000EFF30880EFF3098101B57246FFF72CFF3B
:1020400001BD00BF044800232021C2180133302BFA
:1020500082F80013F9D1704700E100E0002080F31E
:102060001488BFF36F8F04F0F5FE00200D4908605F
:10207000BFF34F8F0C4880F3088800F02BF8202026
:1020800080F3118809484FF40261401880F30988F1
:10209000EFF314800221084380F31488BFF36F8F9D
:1020A000FFF76CFD94ED00E04054002060540020E8
:1020B0000749D1F890200023C2F307221846934223
:1020C00000D17047C1F89830C1F8A0000133F6E79D
:1020D00000ED00E008B572B6002383F31388FFF724
:1020E000E7FF144B4FF0FF32C3F88020C3F8842081
:1020F000C3F88820C3F88C20C3F89020C3F894203C
:10210000C3F89820C3F89C20C3F88021C3F8842129
:10211000C3F88821C3F88C21C3F89021C3F8942117
:10212000C3F89821C3F89C2162B6BFF34F8FBFF369
:102130006F8F08BD00E100E0024B034A0348022113
:1021400000F06CB800000220000000206C7100005C
:10215000F8B5244F154600228A420EDA4468002C56
:102160003CD093B104F1FF3C14EA0C0F07D01E4899
:10217000452102F08DFE6FF015052846F8BD1F2C95
:10218000F5D906681CEA060FF1D1202C0668D0F8B4
:1021900008C0EDB210D9B4F1004F0FD8013CB4FA29
:1021A00084F4C4F11F046400072D4CEA040407D929
:1021B0000E482A464521DCE70824F5E73E24F3E7EC
:1021C00026F01F062E4346F0100644F00104C7F81F
:1021D0009850C7F89C600135C7F8A04001320C3018
:1021E000BAE700BF00ED00E0617D0000897D0000DE
:1021F000044B0522C3F89420BFF34F8FBFF36F8FBA
:10220000704700BF00ED00E0BFF35F8F024B00227C
:10221000C3F89420704700BF00ED00E010B5034CF8
:1022200001232278FFF794FF207010BD282800209A
:1022300014490868082810B521D8FFF7E5FF124CAB
:1022400049680022904201F10C0105D10F4B187032
:10225000FFF7CEFF002010BDC4F8982051F80C3CC9
:1022600023F01F03134343F01003C4F89C3051F8CC
:10227000043C43F00103C4F8A0300132E2E74FF020
:10228000FF30E8E78471000000ED00E0282800201E
:10229000014B1860704700BF100000204FF0200372
:1022A000EFF3118283F31288BFF36F8F0649012386
:1022B000C1F840354FF08041C1F8783582F311887C
:1022C000BFF36F8F0020704700E001404FF0804364
:1022D000C0B2C3F81C05BFF34F8F0549054BCA6850
:1022E00002F4E0621343CB60BFF34F8F00BFFDE702
:1022F00000ED00E00400FA0520B1034B800143F03B
:1023000001031847704700BFE0700000084B70B52C
:10231000C31A0D4607499B100446594306484022FC
:1023200002F0B3FE2B4601462046BDE87040184738
:10233000DC0D0020B76DDBB6A86E000073B50C4C49
:102340000C4A4023041B00930D460B460A49A41077
:1023500061430646094802F0C5FE011E05DA304613
:102360002B4602B0BDE87040184702B070BD00BFF8
:10237000DC0D002059510000B76DDBB6A86E0000DF
:10238000002270B5012104461046FFF7DBFB0F4821
:1023900001F078FC0E4B984215D104F08BFC2669B5
:1023A0000C49304602F017FD00280BDB246909496F
:1023B0000125356404F11C0002F00DFD002801DB4D
:1023C000E564002070BD6FF00400FBE70D24000001
:1023D0000000AD0BD471000001460C2309484B43AB
:1023E00070B5C418D4E90E5600224033A2631844D5
:1023F00002F038FE2DB132462B460348BDE870404E
:10240000184770BDDC0D0020A86E000010B1012837
:1024100004D07047034B1B6C5B0701D1FFF7DCBF97
:10242000704700BFDC0D002008B54FF02003EFF32C
:10243000118183F31288BFF36F8F124A136843F040
:10244000020013F0010310600CD04FF08042D2F86C
:102450000C34D2F80C2413F0010303D00A4802F024
:1024600001FE012381F31188BFF36F8F23B1BDE813
:1024700008400020FFF7B0BFBDE80840012004F08D
:1024800026BC00BF2C0E00201C0E0020094BBFF301
:102490005B8F53E8002F22F0020143E80010002870
:1024A000F7D1BFF35B8FD30702D4012004F04CBCFB
:1024B000704700BF2C0E00202DE9F8433749BFF3C9
:1024C0005B8F0746012251E8003F41E800200028C9
:1024D000F9D1BFF35B8F33B9314932484B60CB60E0
:1024E0008A6002F08BFC7B1E012B31D8012F07D1B3
:1024F0004FF08043D3F81C3403F00303012B27D0A3
:1025000004F09EFC044618B9274B1B78002B3DD1E4
:102510004FF02003EFF3118683F31288BFF36F8F20
:102520000124DFF888904FF080454FF00108D5F87E
:102530001834D5F81824D2030CD503F00303012B6B
:1025400001D0012F06D1DCB186F31188BFF36F8F64
:10255000BDE8F8833046FFF79FFAD5F81835002B11
:10256000E5D1D5F80421002AE1D0C5F80431D5F829
:102570000431C5F81885C9F88081C5F80880D6E708
:102580004FF080430222C3F80423E1E74FF0804379
:102590000222C3F808230646C3E700BF300E00201E
:1025A000CC0D0020F80D0020392C002000E100E0C7
:1025B00008B5084B0848186004F034FC38B10748E7
:1025C000FFF766FE0548FEF7EDFE002008BD6FF040
:1025D0001200FBE7340E0020D86E0000E125000059
:1025E0000A2838B5074D044604D1286883680D21B0
:1025F0005B68984728688368E1B25B689847204623
:1026000038BD00BF340E002030B54068047B01F0B7
:102610001F05B2F5001F45EA441585B04FF00004D0
:1026200004D1284601F0AEFD002032E0B2F5800F63
:10263000CDE902442FD1B3F1007F0CBF0423052361
:102640008DF80830836823FA01F1C9072FD4B2F15D
:10265000A07F2CD16A09012A05F01F031C4A03F54B
:10266000E07318BF4FF0A04252F82330DB071ED4AE
:102670000DF107042146284601F0E8FC154B98426D
:1026800014D1204601F030FD134B98420ED06FF06C
:102690000B0005B030BDB3F1C06F05D0B3F1007FC2
:1026A0000CBF02230123CBE70323C9E703940023D4
:1026B000194602AA284601F0A3FB074B984204D111
:1026C0000121284601F016FDAEE76FF00400E0E7B7
:1026D000000300500400AD0B0000AD0B10B501F07D
:1026E000F3FC044668B901F0C7FC084B98420AD1D4
:1026F0000748214601F0A4FC224605210620FFF7E9
:1027000021FA002010BD6FF00400FBE70000AD0BC4
:1027100015270000430970B510D1094B596869B1FC
:1027200001250C68074E85408A682A4002D04B6814
:102730003046984714B121462468F5E770BD00BFC4
:10274000380E0020C06E00002DE9F04347683B7B47
:1027500001F01F0585B00E4645EA43151446CAB977
:1027600002A9284601F072FC0446284601F032FD19
:102770004A4B984204D06FF0040005B0BDE8F083E6
:10278000844205D19DF8080001F0A8FCA042F2D1D6
:102790000020F2E74FF000090DF103013046CDE9CA
:1027A000029901F053FC4B46804602AA494628464E
:1027B00001F026FB394B984202D06FF01500DCE7A0
:1027C000804503D19DF8030001F088FCA30351D597
:1027D00040F20663234040F2062293423BD00CD8DD
:1027E000062B15D004D89BB1022BE6D104230FE0B1
:1027F000B3F5007FE1D101230AE040F202429342A7
:102800002BD0B3F5C06F2AD0B3F5806FD5D102239A
:102810008DF8043084F48033C3F30043E0068DF870
:10282000053054BFC4F34013032321038DF8063051
:1028300017D57B68012101FA06F6C3F80865002266
:1028400001A9284601F08AFB144B984214BF6FF08F
:102850001500002091E70723DAE70523D8E70323D3
:10286000D6E7620341BF7B68012101FA06F6C3F88F
:102870000C65E4E7E3064FF0000354BFC4F34014D3
:1028800003241A4601A928468DF8044001F0B8FA3D
:10289000024B98423FF47CAF8FE700BF0000AD0BC6
:1028A000024B0B6001231360704700BF440E0020F1
:1028B000004870472872000010B504F0A7FA034CD6
:1028C000206004F09FFA6060002010BD440E0020DC
:1028D000F8B50E46144604F095FA214605463046F2
:1028E00002F09AFC3746F8B1B6FBF5F305FB13632B
:1028F00023B9B4FBF5F005FB104040B10D48234669
:102900003246452102F0C4FA6FF015000BE0A542F3
:1029100009D804F077FA0546384601F061FD641BDA
:102920002F44F9D12046F8BD0348234632464521BD
:10293000E8E700BFEE7D0000127E0000F8B50E460D
:102940003046194617461C4602F066FC40B914484A
:1029500023463246452102F09BFA6FF01500F8BD80
:1029600044EA060515F0030504D00E482346324616
:102970004521F0E78CB124F00304AC4205EB0600DE
:1029800006D1094AD2F80034DB07FBD50020E6E780
:10299000795901F045FD0435EFE72046DFE700BF38
:1029A000127E0000347E000000E0014070B50D464C
:1029B0002846194616461C4602F02EFC40B9094826
:1029C00023462A46452102F063FA6FF0150070BDD8
:1029D00034B122462946304602F024FB0020F6E7B7
:1029E0002046F4E7127E0000036803F01F025B0933
:1029F000012B0260024818BF4FF0A040704700BF93
:102A000000030050074BD3F8082142B10020C3F85F
:102A10000801D3F80821D3F818350B7070474FF030
:102A2000FF30704700200040024BD3F88004C3F809
:102A3000800470470020004070B54B79012B24D0F2
:102A4000032B1FD110268B79032B1BD1CC79CCB94A
:102A50000A79012A1BD0022A1BD09AB914460B68A6
:102A6000B3F5164F66D031D8B3F5165F64D01AD8D7
:102A7000B3F5966F62D00ED8B3F5967F61D0B3F5FB
:102A8000167F61D06FF0850053E00026DBE74FF43E
:102A900080740E22E3E7B3F5166F58D0B3F5965F56
:102AA000F0D1354B39E0B3F5E14F53D007D8B3F54A
:102AB000615F51D0B3F5964FE4D1304B2DE047F62E
:102AC0001225AB42DED14FF4000326E0B3F5613F9F
:102AD00045D011D8B3F5963F43D008D84DF6C02560
:102AE000AB4240D0B3F5614FCCD1254B15E0B3F5E7
:102AF000E13FC7D1234B10E0B3F5612F36D007D8A3
:102B0000214DAB4234D0B3F5E12FBBD11F4B04E0D4
:102B10001F4DAB42B6D14FF0805305691D4832437B
:102B20002243C0F82435C0F86C2503C985E80300AA
:102B3000002070BD184BF0E7184BEEE74FF49E23D2
:102B4000EBE74FF4A033E8E74FF41C33E5E74FF42D
:102B50001D23E2E7124BE0E74FF46C13DDE7114B66
:102B6000DBE7114BD9E74FF46503D6E70F4BD4E70A
:102B70004FF08063D1E700BF00B0130000A04E000B
:102B800000F0EB0000E0D70190D0030000705F0779
:102B900040420F000020004000509D0000502700E0
:102BA00000F0750000B0AF0300903A0100D0BE0EF7
:102BB000F8B50E4604F044F91A4D78BB6424012799
:102BC000BFF35B8F55E8003F002B03D145E800724F
:102BD000002AF7D1BFF35B8F07D04FF47A70013C26
:102BE00004F034F914F0FF04EAD10F4C0023C4F8C8
:102BF0001C31D4F81C310123A360C4F81C654FF4C8
:102C00007A76D4F81C3123B9012004F006F8013E8D
:102C1000F7D10123E36000232B60F8BD01232B6073
:102C2000E3E700BF4C0E002000200040334BF7B517
:102C3000002244680769C3F8002523685A1C064629
:102C400013D001A80193FFF7CFFE019A012393400F
:102C5000C0F808352368019301A8FFF7C5FE019B62
:102C600003F5E073032240F823206068451C06D07A
:102C7000237C002B14BF0321002102F012FBA36868
:102C80005A1C13D001A80193FFF7AEFE019A01234D
:102C90009340C0F80835A368019301A8FFF7A4FE8C
:102CA000019B03F5E073032240F82320E068431CF6
:102CB00006D0637C002B14BF0321002102F0F1FA3F
:102CC000D4E900320D4DC5F81425C5F80C35D4E90A
:102CD00002233946C5F808253046C5F81035FFF7F8
:102CE000ABFE40B90423C5F80035C5F80801D5F896
:102CF000083101232B6003B0F0BD00BF002000406D
:102D000010B501238340114ABFF35B8FDC4352E8C7
:102D1000001F01EA040C42E800CEBEF1000FF6D11C
:102D2000BFF35B8F4FF4803202FA00F002F1804271
:102D300002F58052C2F80803BFF35F8FBFF36F8FB5
:102D40000B4214BF0120002010BD00BF540E002014
:102D50001949F8B5044622F07F450868C1E9002307
:102D6000A5F50013101AB3F5400F22D2134B1B68C0
:102D70001A0A1B065E19124B42F10007C3E90067ED
:102D8000012601F0D3FCA30003F1804303F588334F
:102D9000D3F84025AA420BD11EB94FF40002C3F864
:102DA0004025084B4FF4803000FA04F4C3F8444344
:102DB000F8BD0026E5E700BFD0000020580E002037
:102DC000B80000200010014019B3BFF35B8F01234E
:102DD000104A834052E8001F194342E8001CBCF12E
:102DE000000FF7D1BFF35B8F0B4A4FF48033834062
:102DF000C2F80433094BBFF35B8F1B68BFF35B8FD3
:102E000023FA00F0C30742BF054B4FF40032C3F86A
:102E100000217047540E002000100140500E002089
:102E200000E100E00D4B1868010A0006BFF35F8F58
:102E30000B4BD3F80435181841F10001B3F5801F8E
:102E40000AD2084BD3E90023904271EB030303D26B
:102E500010F1807041F10001704700BF580E002052
:102E600000100140B80000202DE9F04F85B0164653
:102E700098460546FFF744FF0090FFF7D3FFB042A6
:102E800071EB080378D2464B301A68EB0101984287
:102E900071F1000380F08180424B03EB0513D3E90D
:102EA00002ABD84508BF564551D04FEA850909F114
:102EB000804905F1500709F58839BF004FF480318A
:102EC00001FA05F3BFB226F07F4207F18047019374
:102ED000D9F84005344B07F588371446D3F8041564
:102EE000401A20F07F4021F07F4C0128C9F840C5EE
:102EF00007D1CDE90221132003F0A8FFDDE902216B
:102F0000294B01F1020CA4EB0C0020F07F40B0F53E
:102F1000000F88BF64460020386038680198C3F805
:102F2000440324F07F40C9F84005D3F804058142EA
:102F300006D0201A023820F07F40B0F5000F19D8D3
:102F4000A41A24F07F4414EB060A48F1000B15493B
:102F50000E982B0101EB0512C2E902ABC8500F9B82
:102F60005360002428460099FFF72EFF204605B045
:102F7000BDE8F08F2046B1E701230C4ABFF35B8F19
:102F8000AB4052E8001F194342E800100028F8D176
:102F9000BFF35B8FB246C346D9E76FF01504E1E794
:102FA00001000001C000002000100140500E002070
:102FB00073B5194B194D00244FF0FF304FF0FF311E
:102FC000C5F80845C3E902014FF48033C5F804335E
:102FD000134B02264FF400320121C5F8046311207F
:102FE000C3F880212246FEF7ADFD1120FEF78CFDCF
:102FF0000C4A0123AB602B6013600B4B0B4A009310
:10300000019400232046FFF72FFF3046FFF754FAC4
:10301000204602B070BD00BFC0000020001001407B
:1030200000E100E0540E0020512D0000FFFF7F0062
:103030002DE9F743354CD4F804339A070BD5D4F86F
:10304000043143B1324A0023C4F80431D4F80431C6
:103050001368013313604FF02003EFF3118283F301
:103060001288BFF36F8FD4F80433DB0312D5BFF39C
:103070005B8F284B53E8001F21F0010043E8000656
:10308000002EF7D1BFF35B8F002936D1D4F8403141
:10309000002B32D1002382F31188BFF36F8F4BB323
:1030A000FFF7C0FE4FF02003EFF3118C83F312887B
:1030B000BFF36F8F184BD3E90267B04271EB070281
:1030C0004FF0000220D34FF0FF384FF0FF39D3E923
:1030D0000015C3E902891A604FF48033C4F84833FD
:1030E0008CF31188BFF36F8F21B1009532463B46B8
:1030F0000020884703B0BDE8F0830023C4F84031C6
:10310000D4F840310123C6E71146E9E70010014039
:10311000580E0020500E0020C0000020431C13B5A4
:1031200021D0012821DDB0F5000F20DA441EFFF781
:1031300079FE104BD3E90013401AB0F5000F28BFF9
:103140000024013002190C48824228BF024652185E
:103150004FF0000009490190009143F10003FFF78F
:1031600083FE02B010BD0448E0E70024DFE7024C14
:10317000DDE700BFD0000020FFFF7F00512D0000E1
:1031800008B5FFF74FFE024B1B68C01A08BD00BF11
:10319000D00000200C4A30B513680C4D002405EB1C
:1031A0000311D1F80818C9B221B904B11360036042
:1031B000002008E00133072B4FF00104EFD9036032
:1031C00013606FF01B0030BD5C0E002000E001407A
:1031D000034808B5452101F05BFE0020FFF776F8B3
:1031E000687E000030B5816885B0103921F0070491
:1031F000054601F0B3FE10220146684601F01DFFAE
:1032000007491022684601F00DFF10236A46214647
:10321000284601F067FE003818BF012005B030BD18
:103220008073000030B50C46816887B0102302AA75
:103230001039054601F03AFE002802DA012007B0F5
:1032400030BD102202A9284602F07BF890B3032378
:103250002370284602F086F8012301460DF107028B
:10326000284601F023FE0028E8DB9DF8073003F034
:103270000F021B096270237101220DF1070128461C
:1032800002F05FF810B96378042B03D9012363704F
:1032900000232371AA68183A22F00702083AA11CF9
:1032A000284602F079F80028C8D1E11C284602F02F
:1032B000CDF8C4E70449102202A801F0A2FE0028BC
:1032C00014BF02230123C3E7807300002DE9F043FC
:1032D00085B006466946022002F0BEF8054618B1E0
:1032E000FF2005B0BDE8F08302A9052002F0B4F884
:1032F000012804463FD12D483246492101F0C8FD3E
:1033000003238DF808308DF809408DF80A308DF8C8
:103310000B308DF80C509DF800509DF808609DF81A
:1033200003709DF80B809DF80290214C00222078BC
:10333000294602F01DF818B36078314602F018F8FB
:10334000F0B1A378042B01D0BB4219D1E378042B50
:1033500001D0434514D12379042B0FD16379022B7B
:1033600019D1144A1448492101F092FD6079831E55
:10337000022BB6D9B4E70028CDD0B1E74B45EDD04C
:103380000132032A04F10604D1D10C48492101F08D
:103390007FFD0120A5E7032B05D0094A0949042B2D
:1033A00018BF0A46DEE7084ADCE700BFAD7E000032
:1033B000207F0000917E0000F87E00000B7F00005F
:1033C0008A7E00009B7E0000967E000001680E4A07
:1033D0009142034615D1C169A2F11022A2F1EF1268
:1033E00091420ED18268012A0BD8C26812B10169DC
:1033F0008A4206D0586928B19B691B1A5842584125
:1034000070470120704700BF55AA00FF0D4B70B5F3
:103410009E68A6B13046FFF7D9FF044678B9F36835
:103420006BB935690DB9204670BD2846FFF7CEFF50
:1034300028B9EB68B34202D12E462D69F2E7012488
:10344000F1E700BF600E00202DE9F843404F3C68D3
:10345000D4B1BC68C4B100284DD000294BD001FBC9
:1034600000F5B5FBF0F0884245D1281D43D8A907E7
:103470000DD025F003060436FC6803E06368B34210
:103480003BD2A469002CF9D12046BDE8F8832E4632
:10349000F2E7F86044E006F1200C04EB0C0320395D
:1034A00059600021C3E90214DFF8A8E0216919611D
:1034B00044F80CE0DFF8A0C0C3F81CC001B1CB6039
:1034C000C3E90520AAB193619A6902B153612361EE
:1034D0000023C4E905333B694FF00109DB07C4E968
:1034E00001692DD5FFF792FF50B31C4B48461B686E
:1034F00025E0FB60E8E70024C6E7A3681BB1174B93
:1035000001201B6898476168891B2329D4E905209D
:1035100004F12008BFD80123A360002AB9D090612C
:10352000A36903B15A610023C4E905333B69DA0793
:1035300006D5FFF76BFF18B1084B1B6801209847B1
:103540002A4600214046444601F077FD9CE700BF33
:10355000600E002055AA00FF669911EE20000020A1
:103560002DE9F041054600287CD03F4F3B68002BF9
:1035700078D0BA68002A75D0834203D87A68134499
:10358000984203D3394B01201B689847A5F12004CA
:103590002046FFF71BFF18B1344B01201B689847EA
:1035A00055F8183C012B03D0304B01201B6898477D
:1035B00055F8146C002345F8183CAEB1B26892B9C6
:1035C00055F81C3C03F1200273681344736055F8EE
:1035D000103C336103B1DE6020462022002101F05F
:1035E0002CFD234634461E462069002832D08368CD
:1035F000002B2FD16368426820331344D4E905219E
:10360000636003692361DAB901BB42698169626160
:10361000A161EAB19461A26902B1546103B1DC60B5
:103620002022002101F009FD3B699B071AD5FFF715
:10363000EDFEB8B10D4BBDE8F0411B680120184705
:103640009161A1690029E0D04A61DEE7F960F8E7FD
:10365000FC60E0E7002EE7D1FB68A36103B15C6189
:10366000FC60E1E7BDE8F081600E00202000002052
:1036700038B514220D4604460021124801F0DDFC45
:103680001149124800F032F8232D1AD914F003031F
:103690001FBF043DED18C3F10403E4182A460021BE
:1036A000204601F0CAFC074B094A9C60C3E900456B
:1036B0002260A2F11022203DA2F1EF126560E261CA
:1036C000DC6038BD600E0020613500004934000028
:1036D00055AA00FF014B1B68184700BF1C000020C3
:1036E000014B1B68184700BF24000020024B1860E4
:1036F000024B0020196070471C00002024000020AD
:103700000A4619B1024B00211B681847704700BFD9
:1037100028000020F8B500F1080647680446304646
:103720000D4602F07CFA874216D16368B3F5807FBC
:1037300012D80021304602F0D1FB00280CDD002118
:10374000304602F03FFA38B145B9002104F11400C7
:1037500002F0C4FB00281EDC1B481EE004F12C060E
:103760000021304602F0BAFB0028F5DD002130468A
:1037700002F028FA0028EFD004F138060021304684
:1037800002F0ACFB0028E7DD0021304602F01AFA17
:103790000028DAD1E0E70DB90020F8BD002104F1DE
:1037A000440002F09BFB0028D6DD002104F150000C
:1037B00002F094FB0028CFDD002104F15C0002F050
:1037C0008DFB0028E8DCC7E780BFFFFF70B5002154
:1037D0000446FFF79FFF0546B8B904F108063046D6
:1037E00002F001FA7F2810D914342946204602F04D
:1037F000E9F950B1204602F0F6F9012805D9314621
:10380000204602F02AFB002800DB014D284670BD4F
:1038100000BEFFFFF0B50C4687B0002105461646F6
:10382000FFF778FF80BB03A802F0F9F821466A6829
:1038300003A802F0FAF90446D0B905F108042146BC
:1038400003A802F00AFB00281BDA05F1680303A9AC
:10385000009305F11402234608466F6802F064FEE7
:10386000044628B93A46314603A802F0FFF9044657
:1038700003A802F0DAF80CB1A4F58544204607B09D
:10388000F0BD6FF00304F3E7004CF7E780BFFFFFE4
:103890000023C0E90033C1B9194A1A4BDFF868C0E8
:1038A000C0E90223194B1A4AC0E904C3194BC0E905
:1038B0000623194B036203F17453A3F52303A3F604
:1038C00092434362816600207047144B144ADFF82C
:1038D00054C0C0E9022303F1794303F5740303F5EF
:1038E00001630361104BC0E905C303F1D14303F544
:1038F000C01303F51E63C3610C4B03620C4BE0E77E
:1039000067E6096A85AE67BB72F36E3C3AF54FA570
:103910007F520E518C68059BABD9831F07D57C362F
:10392000D89E05C139590EF7310BC0FFA78FF96436
:10393000A44FFABE2DE9F04FD1B048AB019300F18E
:10394000080600F12803019A0493334653F8040B48
:1039500042F8040B04988342F8D14F9B02934CAD7C
:10396000DDE94AE395E82011DDE948470393454B3B
:10397000059306AA4FF00009B9F10F0F6AD84B78EA
:1039800091F800B091F802A01B0443EA0B6391F890
:1039900003B043EA0B0343EA0A234FEAF52080EA27
:1039A000B51080EA756A8CEA0800DDF814B09360FF
:1039B000284080EA0C0050445BF804ABCDF814B00A
:1039C00082440298534403444FEA743A44EA07009D
:1039D0008AEAB40A00EA0E0004EA070B8AEAB45A3B
:1039E00040EA0B00504409F10109DDF80CA0B9F1DF
:1039F000400F9A44CDE902CE034402F1040201F1E2
:103A0000040120D1CDE94D58CDE94834CDF83CC171
:103A1000CDF830A14A970790CDF82CE10693019993
:103A2000336851F8042B0191134446F8043B049B7E
:103A3000B342F4D106A84FF49471FFF761FE002061
:103A400051B0BDE8F08FBE46C4462746A8461C4686
:103A5000554691E7136852F834BC52F8380C4FEAD7
:103A6000F34A8AEA734A8AEA932A52F8143C0344D6
:103A70004FEABB4080EAFB109A4480EADB035344E0
:103A80008BE700BF58720000024AD2F80034002BC6
:103A9000FBD0704700E001404FF0805310B5D3F8E1
:103AA00030210D2A55D14FF080410022C1F80C2160
:103AB000C1F81021C1F83825484AD3F80404C2F8E7
:103AC0002005D3F80804C2F82405D3F80C04C2F882
:103AD0002805D3F81004C2F82C05D3F81404C2F852
:103AE0003005D3F81804C2F83405D3F81C04C2F822
:103AF0004005D3F82004C2F84405D3F82404C2F8E2
:103B00004805D3F82804C2F84C05D3F82C04C2F8B1
:103B10005005D3F83004C2F85405D3F83404C2F881
:103B20006005D3F83804C2F86405D3F83C04C2F841
:103B30006805D3F84004C2F86C05D3F84434C2F8E1
:103B40007035D1F80034DB0709D56FF00103C1F8F7
:103B500000344FF08053D3F830310D2B0CD14FF09F
:103B60008053D3F834313BB14FF01023D3F80822FF
:103B70004FF08043C3F858254FF01023D3F80022AC
:103B8000002A03DBD3F80432002B22DA1449012384
:103B90004FF01020C1F804351224FFF775FFC0F86C
:103BA0000042FFF771FFC0F80442FFF76DFF0023EA
:103BB000C1F80435FFF768FFBFF34F8F09490A4B7F
:103BC000CA6802F4E0621343CB60BFF34F8F00BFBB
:103BD000FDE7064B064A1A6010BD00BF00C000405A
:103BE00000E0014000ED00E00400FA052C00002098
:103BF0000090D00370B501250268B2FA82F3C3F1D8
:103C00001F035E1CDCB214D0BFF35B8F05FA03F315
:103C100022EA030350E8006F964204D140E8003CDA
:103C2000BCF1000FF6D1BFF35B8FE5D102480C70F9
:103C300070BD0248FCE700BF0000AD0B0200AD0BF9
:103C40000368CB40DB0710B515D4012303FA01F15B
:103C50000368BFF35B8F41EA030250E8004F9C42C8
:103C600004D140E8002CBCF1000FF6D1BFF35B8F0C
:103C7000EED1024810BD0248FCE700BF0000AD0BCA
:103C80000400AD0B044B1A7922B9012218601A7195
:103C90000248704702487047740E00200000AD0BC8
:103CA0000C00AD0B4FF0804310B5D3F8002152B19A
:103CB0000020C3F80001D3F800210122C3F8082333
:103CC000104B1B6898474FF08043D3F8042172B122
:103CD0000022C3F80421D3F80421D3F81824D3F820
:103CE0001814920704D10122C3F818259A6010BD58
:103CF0000222C3F80823034BBDE810401B680120D3
:103D0000184700BF740E0020036803F01F025B0910
:103D1000012B0260024818BF4FF0A040704700BF5F
:103D200000030050034B083033F81000C0F340107C
:103D3000704700BF3000002070B500F108030C4C44
:103D400034F81330DA0505460E4607D5C3F343238E
:103D500004EBC30254F8333052689847A3682BB180
:103D6000E26831462846BDE87040184770BD00BF84
:103D700030000020124A083010B432F81030D90553
:103D80001BD5C3F3432123F4F85322F8103002F17A
:103D90001004002034F8023B13F4807F03D0C3F3F7
:103DA0004323994209D001302A28F3D1002342F855
:103DB0003130044810BCFFF743BF10BC704700BF50
:103DC000300000209800002038B50246FFF7AAFF17
:103DD000094C02F1080540B134F8153007495B0B76
:103DE00003F5A273002041F823001046FFF7C2FF3D
:103DF000002324F8153038BD30000020006000405A
:103E00002DE9FF41044617461D4621B34E4E00F1F1
:103E1000080836F818309B0706D5FFF783FF18B15E
:103E20004A4804B0BDE8F0810023CDE900338DF8A5
:103E30000E308DF80F300DF10F020B4620460DF1BC
:103E40000E0102F083FF36F8183023F0020343F02E
:103E5000010326F8183097B13B4B3E787A6804F19D
:103E6000080033F810108F070CD5002AD8D133F88A
:103E7000102022F01C0242EA860223F81020CDBB5B
:103E80003348CEE721F02001C904C90C23F81010F3
:103E9000002AECD0032EC3D817782EB92D4A07F587
:103EA000A27142F82160E2E7BA0002F1804202F515
:103EB000C04241EA4731D2F810C52CF0030CC2F8D9
:103EC00010C5D2F810C52CF44F3C2CF4407CC2F83D
:103ED00010C5D2F810E54FEA042C0CF47C5C4EEAD5
:103EE000064E4CEA0E0C41F0200123F81010C2F8E7
:103EF00010C5BCE7D5E900672046FFF73BFF002E61
:103F0000BED0114D2B689E4204D16B689F4201D1F7
:103F100000220AE010480DF10F01FFF76BFE0C4B79
:103F200098427FF47EAF9DF80F2045F8326005EB94
:103F3000C20308345F6035F8143043EA422343F487
:103F4000807325F814309BE7300000200400AD0B8F
:103F50000000AD0B0060004098000020F0B5044662
:103F600085B0154619B3334E00F1080736F817200F
:103F7000930703D4FFF7D6FE002858D112F01C0F88
:103F800002D04B78012B52D001238DF80F30002343
:103F9000CDE900134A1C8B1C20460DF10F0102F0E5
:103FA000D5FE36F8173043F0030326F8173015B95D
:103FB000214805B0F0BD1F4E04F1080736F8170080
:103FC000830734D595F800C06146890020F02000B1
:103FD00001F18041C00401F5C041C00C26F8170072
:103FE0000023C1F810356A78002AE1D0D1F81035E5
:103FF000AD7823F4991323F4F853C1F81035D1F8B0
:1040000010E5230203F47C53120402F4403243EA25
:104010000E0313432A0502F4801240EA4C30134386
:1040200040F0200026F81700C1F81035C0E703481B
:10403000BFE700BF300000200000AD0B0400AD0B57
:10404000014BC3E9020170473000002008B5024669
:10405000FFF768FE38B1054B0548083233F81230D7
:104060005B0B0B7008BD0348FCE700BF300000206D
:104070000000AD0B0400AD0B38B50F4C94F86C503C
:10408000BDB95422294604F1100000F0D6FF0620E5
:10409000FDF73AFD094B0A48C3F87C51D3F87C215F
:1040A0004FF00042C3F80423012384F86C30A36668
:1040B00038BD0448FCE700BF30000020006000402D
:1040C0000000AD0B0500AD0B034B93F86C000038FE
:1040D00018BF0120704700BF300000200146014892
:1040E000FFF7AEBD9400002001460148FFF782BDF6
:1040F0009400002037B50446FFF714FE04F10802CF
:104100001E4B33F81230E8B113F002051AD15B0BE5
:104110009A0002F1804000F5C24002F1804202F5AF
:10412000C04205600068D2F8100540F00100C2F8F6
:10413000100529B1012202FA03F3114AC2F804332F
:1041400003B030BDC3F38203042B12D0052B12D071
:1041500001A80194FFF7D8FD019BD0F81015D940B4
:1041600001F001010231204603B0BDE8304002F009
:1041700034BE0321F7E70221F5E700BF300000203D
:104180000060004008B50246FFF7CCFDC0B102F167
:1041900008010E4B33F81130990711D45B0B012243
:1041A0009A409B000A4903F1804303F5C043C1F8DC
:1041B0000823D3F8102522F00302C3F8102508BD08
:1041C000BDE808400021104602F007BE3000002084
:1041D000006000400E4B00F1080213B533F81230B6
:1041E000DB07044611D5FFF7CDFF2046FFF7ECFDB6
:1041F00001A80194FFF788FD019B03F5E0730222FB
:1042000040F82320034802B010BD0348FBE700BF7D
:10421000300000200000AD0B0400AD0B2DE9F04F85
:10422000644B65486549002687B0012234461D6805
:1042300035B1D0F8045315421EBF1C601D681643EB
:1042400004338B424FEA4202F1D1DFF86C81D8F897
:104250007C31002B00F091804FF0A043D3F8202553
:104260000492C3F82025D3F820280592C3F820280B
:1042700000270DF110097B0100934FF0010A49E07E
:10428000009B4F4A94FAA4F4B4FA84F41C4404F159
:104290000803E00832F81330039404F007020AFA26
:1042A00002FC19F8002022EA0C0209F8002003A8F9
:1042B000C3F382059908FFF727FD039A02F5E07220
:1042C0004B0750F82220AB46C2F3014229D52046C5
:1042D0005946D5B2FFF730FD03A80394FFF714FD4C
:1042E000039B03F5E07350F82330C3F301439D4271
:1042F00007D10021204602F070FD2946204602F039
:104300006CFD03A80394FFF7FFFC039B0AFA03F379
:10431000C0F8203559F82740002CB1D1CFB901277A
:10432000A9E7022A0CBF032102212046019202F0D4
:1043300054FD032D04D0019A022A06D1012DE0D1AB
:1043400059462046FFF7F8FCDBE7032AD9D1022DB6
:10435000F5E7C8F87C41D8F87C311A494FF0A04302
:10436000D3F820250492C3F82025D1F820350593F1
:10437000C1F8203513437FF47BAF012416B907B091
:10438000BDE8F08F96FAA6F3B3FA83F304FA03F2CA
:104390009B0003F1804303F5C04326EA0206D3F8ED
:1043A0001005D3F81015C0F30520C1F30141FFF744
:1043B000C3FCE3E700610040006000402061004072
:1043C0003000002000030050044AD2F80034DB071C
:1043D000FBD50160BFF35F8F704700BF00E0014075
:1043E0004FF080531A69B0FBF2F302FB130373B969
:1043F000084B0222C3F80425C3F80805D3F80024AB
:10440000D207FBD500220448C3F8042570470348AF
:10441000704700BF00E001400000AD0B0A00AD0B8B
:1044200010B5054C0123C4F80435FFF7CDFF002378
:10443000C4F8043510BD00BF00E0014010B5144CB5
:10444000144A1549032323616361144BA261E3619C
:104450004FF4806323620023A3626362E3622266F7
:104460000F4A6266E01D1022A2662367E366636757
:1044700000F0AAFDBFF35F8F0A49204600F0A4FDBB
:10448000BFF35F8F2023A371BFF35F8F10BD00BF09
:104490007C0E0020327F00003B7F00003928002086
:1044A000292800203F7F00000E4B70B553F82040B4
:1044B000013053F82060A64200D870BDD4E9003521
:1044C0002846984765B1EB6830B10028B8BF404234
:1044D000FF28A8BFFF2018705A7842F001025A70D6
:1044E0000834E8E75873000070B5054610B9002499
:1044F000204670BD0378002BF9D00E4C0E4EB4420E
:1045000008D10C4CB442F2D0204602F08BFC50B9DA
:104510001834F7E7204602F085FC10B12368AB425F
:10452000E6D01834EBE72168284600F05EFD00284D
:10453000EED1DDE7A86E0000086F000073B50446F9
:104540000D464FF02003EFF3118683F31288BFF37B
:104550006F8F042896BF124B124B53F82030002265
:10456000009245210246104800F092FC3DB1EB69F3
:10457000C3F308031BB10D48452100F089FC0C4B27
:104580000C480022452100F083FC29462046FEF716
:104590001FFE86F31188BFF36F8F02B070BD00BF9E
:1045A0006C730000467F0000547F0000817F000094
:1045B000A77F0000AF7F000008B5094B0122022051
:1045C0001A70FFF771FF00F009F90320FFF76CFF85
:1045D000FBF704FF034A137B23F00103137308BDA9
:1045E000392C0020D800002008B50348034A0021D8
:1045F000121A02F021FC08BDB80000203C2C00205B
:1046000008B5194B83F30888184C636943F40073A9
:1046100063610025E02384F82230E577257665760E
:10462000A57684F82050636A43F4E023636284F83B
:104630002350FDF7F5FCFDF729FA4FF0FF33A36295
:10464000E362FDF7F5FDFDF777FD02F0EAFB284692
:10465000FFF72AFF0120FFF727FF05482B462A46D0
:104660002946FDF7CDFA00BF805C002000ED00E098
:10467000B945000008B50648064A0749121A02F073
:10468000DDFBBDE80840054A0549064802F0D6BBF7
:1046900000000020B8000020508000000000000052
:1046A0005080000000000020034B1B680BB9FEF790
:1046B00067BD0020704700BF240F00200D4B10B5D0
:1046C0001C689C4208BF0024FFF7EEFF74B1D4E9D8
:1046D00004321B1A62EBE070B3F1004F70F100027C
:1046E00004DA0028ACBF1846002010BD6FF000406F
:1046F000FBE700BFA000002030B5036868B10A4A9C
:104700005268904209D043B1D3E90421D0E904456D
:10471000121941EB0501C3E90421426813605A6094
:104720000023C0E9003330BDA00000202DE9F8438C
:104730004FF02003EFF3118483F31288BFF36F8FE0
:10474000234EDFF89080244D3060D8F800003268A6
:104750004045D5E9001E4FEAE2770BD050B1D0E9D1
:10476000043C9A4277EB0C0916DA9B1A6CEB070CA7
:10477000C0E9043C52184EEB0707C5E900270025A5
:104780003560FFF79BFF2946FEF7C8FC84F31188CC
:10479000BFF36F8FBDE8F88359184EEBE377D31A58
:1047A000336000220023C0E90423C5E90017FFF7A6
:1047B000A3FF84F31188BFF36F8F836898474FF08E
:1047C0002003EFF3118483F31288BFF36F8FBCE7EC
:1047D000240F0020A000002058010020024A0349B5
:1047E000034800F09CBA00BFA67F000019800000BB
:1047F00026800000704729B1012914BF6FF0150011
:104800000520704702207047002070472DE9F743CC
:104810000E4617469946044628B94FF0FF384046E1
:1048200003B0BDE8F0830029F7D0002AF5D0CB68AB
:104830000D891D4404230DEB03022946384600F080
:1048400035FB80460028E8D1BDF80410738946F690
:104850000812914223D1BDF806109942DDD10423FC
:104860000DEB03022944384600F020FB0028D4D188
:10487000BDF8042046F607139A42CED19DF82830A1
:10488000A3727389BDF80620A4F808902B44E36056
:1048900004351344C4E9006763612561BFE7002B59
:1048A000E6D0BAE72DE9F7430F4690461E46044688
:1048B00020B94FF0FF3003B0BDE8F0830368002B50
:1048C000F7D04368002BF4D04FF6FF79D4E90423E6
:1048D0009A4216D223685B8923B1E368934204BFEE
:1048E000043323610423216960680DEB030200F0A7
:1048F000DDFA0028DDD1A37A256923B1E368AB4254
:1049000001D80120D7E72189BDF80620494502F1E9
:10491000040303D0BDF804C08C450BD116B1BDF81B
:104920000410318004353D60A8F80020226913444A
:104930002361C0E72B442361C8E700F062BB4FF45A
:10494000C0735843303070470B78022B06D0052BCC
:104950000CBF4FF4C0704FF0FF3070474FF4C07081
:10496000704710B5044600F0F0FAA3684FF4C07227
:10497000303B02FB103010BD8168183921F007016F
:104980000122083900F051BD13B50446019100F031
:10499000E9FC0423A0F108010DEB0302204600F01E
:1049A00018FD02B010BDF8B513460F46164600219B
:1049B00002460546FCF712FA044650B9334605F1A3
:1049C0002C0201212846FCF709FA10B1002F18BF6C
:1049D00004462046F8BD73B5054600200C46164631
:1049E000FFF709FF6946C0B2FCF7FEFF30BB2C2180
:1049F00001FB045400982189E368CD1804230DEBD2
:104A00000302294600F052FAC0B9BDF804206489B7
:104A100046F608139A4216D1BDF806309C420DD1D5
:104A2000042300980DEB0302611900F03FFA28B946
:104A3000BDF8042046F607139A4207D0009800F00C
:104A400034FA02B070BD002CF2D0F7E7BDF80610C2
:104A5000214429443160F1E737B5426A0446802594
:104A600001A902200195FCF7DDFF58B9019B226DD9
:104A7000A36201A905200195FCF7D4FF054628B1E2
:104A8000092500E00125284603B030BD019B206ABE
:104A9000636500F05AFAE065F5E70123036003F16E
:104AA000012343600023C0E9023370474379012B9F
:104AB00007D10368012B04D10079431E58425841A5
:104AC0007047002070477FB506460D46022001A9B9
:104AD000FCF78AFF38BB0198FFF743FFF16D0446EE
:104AE000284600F0E5F80444019800F02EFA064646
:104AF000019800F033FA082201460DEB020000F0A5
:104B00009CFA2B798DF8083021460198334602AA89
:104B100000F0E8F9041E019818BF012400F0C5F95F
:104B2000204604B070BD0124FAE700F0F7B92DE982
:104B3000F8430E46002107460846FFF75CFE0121B8
:104B400004460020FFF757FE33789C4221D098425C
:104B500021D101252C2303FB0575F86DAC6AFFF705
:104B6000EEFE013C07464FF000086B6A03EBC402FF
:104B700053F83410D2F804901B684A46C91A3046DC
:104B8000C844FFF7D2FFB84504F1FF34EDD3BDE8C8
:104B9000F8830025DEE70120F9E737B515460C4616
:104BA0000520694600F058FCE979012903D000226C
:104BB000204600F065FC9DF80330012B02D1204611
:104BC00000F03DFCA9682046FFF7DEFE2046FEF718
:104BD00009FB002003B030BD73B50D460646FCF757
:104BE000E5F90446E86050B302282DD101A9FCF78D
:104BF000FBFE58BB01982A463146FCF73DF90446B6
:104C0000D0B9019800F0AEFB012301460DF103027B
:104C1000019800F04BF90446A0B9019801220DF16A
:104C2000030100F0B3FB10B101238DF803309DF8B0
:104C3000033003F00F03EB71019800F036F92046C2
:104C400002B070BD0124F7E70724F8E70124F6E776
:104C500013B5022001A9FCF7C7FE48B90198FFF778
:104C60008BFE0446019800F020F9204602B010BDEA
:104C70000124FAE71FB5022001A9FCF7B5FEA8B987
:104C8000019802A9FEF7CEFA044668B99DF80B30E8
:104C9000032B03D1019800F0D2FB0446019800F0E9
:104CA00004F9204604B010BD0124F7E70124F8E719
:104CB00030B543790279012B0CBF0123022301FB9C
:104CC00003F4036803F1FF3302F1FF3204FB03F343
:104CD00014BFCD01002501FB0231481930BD034648
:104CE00058B1426802F00302012A03D0032A04D11A
:104CF000026812B10020986070476FF0150070478D
:104D00004268816002F00302032A4FF0000203466A
:104D10000CBF006810465A607047002070470FB4FF
:104D200007B504A951F8040B0191FCF741FB03B04E
:104D30005DF804EB04B07047038B13F0070305D153
:104D40000368002B0CBF002003207047022B05D105
:104D5000438B002B14BF002004207047012B05D18A
:104D60000368002B0CBF002005207047002070470F
:104D70002DE9F0410D4607461946281D90461E466E
:104D8000FFF7BEFF044638B133464246294638464F
:104D9000A446BDE8F0416047BDE8F08110B44FF093
:104DA0002004EFF3118284F31288BFF36F8F416107
:104DB00010BC0121FCF70ABB10B50C4640B139B15B
:104DC000081DFFF78CFF28B9A36833F0030301D057
:104DD0006FF0150010BD38B50C46054658B151B1FD
:104DE0000B6843B14B6833B11C22002100F025F958
:104DF0002C61002038BD6FF01500FBE770B504464C
:104E00000E46FFF7D9FF051E31DB4FF02003EFF30D
:104E1000118183F31288BFF36F8F638B208B4FF662
:104E2000FF75AB4200F007022ED0022A0ED10133EB
:104E300063831546012381F31188BFF36F8FB3B1EC
:104E4000002331462046FFF793FF10E0830701D08F
:104E5000062A0ED100233360636893B9C4E9006663
:104E6000154662B90A4620460221FCF7AFFA2846E9
:104E700070BD052A0CBF6FF085056FF00405002397
:104E8000D9E71E606660EBE76FF00A05F7E7704749
:104E90000FB407B504A951F8040B0191FCF788FA87
:104EA00003B05DF804EB04B0704770472DE9F041A2
:104EB0000C1E054617461E4610DB8268E318934217
:104EC0000CD8C068FFF710FB6968214483681C6830
:104ED0003A463346A446BDE8F04160476FF01500FE
:104EE000BDE8F0812DE9F0410C1E054617461E462F
:104EF00010DB8268E31893420CD8C068FFF7F4FA1D
:104F00006968214483685C683A463346A446BDE834
:104F1000F04160476FF01500BDE8F08170B50C1EE0
:104F2000054616460EDBA318826893420AD8C0686D
:104F3000FFF7DAFA69682144836832469B68BDE866
:104F4000704018476FF0150070BD08B5C068FFF7D6
:104F5000CBFA8368DB689847006808BD08B5C0686D
:104F6000FFF7C2FA8368DB689847007908BD70B51F
:104F700002684C68A24216D38B6823449A4206D238
:104F8000D1E90435AB4204D36FF00B038B610020F1
:104F90000AE0CD68121B05EBC30645F833204268D2
:104FA000726001330B61012070BD01460068FCF79F
:104FB0007DBD00210120FCF779BD08B5FCF7DAFDC5
:104FC000BDE80840FCF748BE0139034611F8012F3F
:104FD0000AB91A70704703F8012BF7E7034600205F
:104FE0001A5C02B970470130FAE7431E013913F821
:104FF000012F11F8010F824201D1002AF7D1101AB6
:10500000704710B503465AB10139841813F8010BE3
:1050100011F8012FA34201D09042F7D0801A10BDA1
:105020001046FCE710B5431E0A44914200D110BD62
:1050300011F8014B03F8014FF7E7C9B202440346E8
:10504000934200D1704703F8011BF9E74FF0FF309E
:1050500070470369C9B20C2201FB0233186C00F0DF
:10506000070070474FF02003EFF3118283F312889B
:10507000BFF36F8F036803F0C00343F002030360C4
:1050800082F31188BFF36F8F7047034670B50069D4
:10509000C9B24FF02004EFF3118684F31288BFF3F6
:1050A0006F8F0C2505FB0104246C14F0C00401D0A3
:1050B000A24211D105FB010001220264002086F307
:1050C0001188BFF36F8F30B95B680C2202FB01318E
:1050D0004B689847002070BD4FF0FF30EFE780220B
:1050E000FFF7D3BFF8B5069F04690546C9B24FF074
:1050F0002000EFF3118C80F31288BFF36F8F0C2622
:1051000006FB0146306C00F0070EBEF1010F10D116
:10511000376400268CF31188BFF36F8F3EB90C20E3
:1051200041430C44C4E90E236B685B5898473046F2
:10513000F8BD00F0C000874214BF4FF0FF366FF09B
:105140007706E7E713B580240094FFF7CBFF02B0A2
:1051500010BD6FF085007047006910B4CBB21C24FD
:1051600003FB0400002110BC1047002001F0AFBD7C
:10517000002001F0E9BD43685B68D3F810350B608F
:105180000020704743685B68D3F8040542400A403A
:105190004240C3F804250020704743685B68002044
:1051A000C3F80815704743685B680020C3F80C1506
:1051B000704743685A68D2F804354B40C2F804354A
:1051C000002070470369586830B558B10024814207
:1051D00012D108689D6854B98D42586000D198601A
:1051E000002008606AB9002030BD2846EFE78D42F4
:1051F000206008BF9C60F3E705680446002DF4D1E9
:105200003AB198685A680A6059600028EBD19960F1
:10521000EAE76FF01500E7E738B505460C4601F000
:10522000EBFD002D07DBA84205D9401B84428CBF53
:105230000020012038BD0020FCE72DE9F0478368FD
:1052400086B01B698846914601A902AA98470024A6
:10525000A2462546029BAB4202D806B0BDE8F087C5
:10526000019F07EBC50700267B6804933A68B242AA
:105270000AEB060302D801359A46EBE7494603A834
:1052800003940593C0470028E7D0049B01361C44D3
:10529000ECE702690B4692E8030083E80300002074
:1052A000704707B5019001A8FDF79EFB019B03F530
:1052B000E073890040F8231003B05DF804FB73B578
:1052C000054601A80C461646FDF764FF70BB4FF07B
:1052D00080531969B5FBF1F201FB125242BB196907
:1052E000B4FBF1F201FB124212BB1A695B69534332
:1052F000A3421DD3E4B1019B1B0103F1804101F5E1
:10530000F031C1F80058C1F80448C1F80868D1F874
:10531000002895420FD1D1F8042894420BD1D1F83E
:105320000838DBB2B34218BF6FF00D0002B070BD99
:105330006FF01500FAE76FF00D00F7E70222FFF7B4
:10534000BEBF38B50C4615462544FFF707FE21467B
:10535000A94201D1012038BD11F8013B9842F7D094
:105360000020F8E78068183820F0070010387047F0
:10537000042809D0052803D1481E18BF0120704712
:10538000431A5842584170470120704711B10AB181
:10539000FFF7D7BF0020704738B50C4601231146F0
:1053A00022460546FFF782FD002810DB0122214638
:1053B0002846FFF7EBFF18B103232370002038BD08
:1053C0002378012B0CBF012302232370F7E7012070
:1053D000F5E72DE9F7431D4606460F469046FFF7D1
:1053E000B4FD6C1E044440420440082C1AD83046D8
:1053F000FFF7B4FD2A46814641466846FFF712FE94
:10540000621B49460DEB0500FFF717FE23466A466F
:1054100039463046FFF766FD003818BF012003B05B
:10542000BDE8F0834FF0FF30F9E707B501238DF8B1
:10543000042001AAFFF7CDFF03B05DF804FB8168EB
:105440001839012221F00701FFF7EFBF8268183AEF
:1054500022F00702FFF7A0BF13B50C46C0B201A9A6
:10546000FCF7C2FA50B921460198FDF7DBFE04466D
:105470000198FFF71AFD204602B010BD0124FAE79B
:1054800013B541EA021104468DF80710FFF76AFFD1
:10549000012301460DF107022046FFF79AFF02B0F3
:1054A00010BD00207047036870B5CD1A002D0DDDCA
:1054B00093F900601C78002E0BDB5C1C04601B78E9
:1054C00013600368C91A13688B4232D96FF05F000A
:1054D00070BD04F07F04013C032C27D8DFE804F002
:1054E0000209121E012DF1D05C78146002330360B2
:1054F000E7E7022DEADDB3F8014064BAA4B2146014
:105500000333F4E7032DE1DD9C785D78240244EA5F
:105510000544DD782C4314600433E8E7042DD5DD21
:10552000D3F8014024BA14600533E0E76FF063005C
:10553000CEE70020CCE770B404680E1B002E07DD18
:1055400026789E4208D10134046070BCFFF7ABBFDF
:105550006FF05F0070BC70476FF06100FAE737B51D
:105560000223154601AA0446FFF7E5FF40B9019A58
:105570002168284600F059FB2368019A13442360F0
:1055800003B030BDF0B504395F420025013B8542D0
:1055900000D1F0BD52F8256051F8044F3E401C4048
:1055A00034430C600135F2E72DE9F041844688462A
:1055B0000E4614460025BCF10F0F06F1400604F11B
:1055C000400478D807096FF00F0606FB0706072E80
:1055D0004FEA871C08EB871402EB87105DD958F857
:1055E0000C70A3FB07176D1852F80C1047F1000759
:1055F0006D1842F80C50616847F10002A3FB01519D
:105600005219456841F1000152194260A26841F106
:105610000001A3FB02524919856842F100024919B1
:105620008160E16842F10002A3FB01515219C56893
:1056300041F100015219C260226941F10001A3FB4E
:1056400002524919056942F1000249190161616973
:1056500042F10002A3FB01515219456941F10001D9
:1056600052194261A26941F10001A3FB025249199A
:10567000856942F1000249198161E56942F1000240
:10568000A3FB0551521941F10005C1695218C261CD
:1056900045F10005083E203020344FEA860C0746CD
:1056A00004EB8606A64240F005816044002D40F0E0
:1056B0000F81BDE8F08156F8407C54F8401CA3FBF4
:1056C00007E715EB0E0547F100074D1944F8405C5C
:1056D00056F83C5C54F83C1CA3FB05E547F1000779
:1056E00017EB0E0745F10005CF1944F83C7C56F83E
:1056F000387C45F10005A3FB07E715EB0E0E54F8C7
:10570000385C47F1000715EB0E0544F8385C56F895
:10571000345C47F10007A3FB05E517EB0E0E54F8C8
:10572000347C45F1000517EB0E0744F8347C56F83D
:10573000307C45F10005A3FB07E715EB0E0E54F88E
:10574000305C47F1000715EB0E0544F8305C56F865
:105750002C5C47F10007A3FB05E517EB0E0E54F890
:105760002C7C45F1000517EB0E0744F82C7C56F80D
:10577000287C45F10005A3FB07E715EB0E0E54F856
:10578000285C47F1000715EB0E0544F8285C56F835
:10579000245C47F10007A3FB05E517EB0E0E54F858
:1057A000247C45F1000517EB0E0744F8247C56F8DD
:1057B000207C45F10005A3FB07E715EB0E0E54F81E
:1057C000205C47F1000715EB0E0544F8205C56F805
:1057D0001C5C47F10007A3FB05E517EB0E0E54F820
:1057E0001C7C45F1000517EB0E0744F81C7C56F8AD
:1057F000187C45F10005A3FB07E715EB0E0E54F8E6
:10580000185C47F1000715EB0E0544F8185C56F8D4
:10581000145C54F8041CA3FB05E547F1000717EBE3
:105820000E0E54F8147C45F1000517EB0E0744F8F2
:10583000147C56F8107C45F10005A3FB07E715EB37
:105840000E0E54F8105C47F1000715EB0E0544F8F6
:10585000105C56F80C5C47F10007A3FB05E517EB5D
:105860000E0E54F80C7C45F1000517EB0E0744F8BA
:105870000C7C56F8087C45F10005A3FB07E715EB07
:105880000E0E54F8085C47F1000715EB0E0544F8BE
:10589000085C56F8045C47F10007A3FB055E7F191E
:1058A0004EF10005CF1945F1000544F8047CACF138
:1058B000100C80E654F8042BA3FB0221AD1841F133
:1058C00000023968491947F8041B42F10005E9E66E
:1058D00003685B1940F8043B2CBF01250025E5E671
:1058E0002DE9F04F85B017460E9C00906268A068C5
:1058F00003938A4692000021FFF79FFB7D68DAF848
:105900000430A668AB4228BF2B466C1C0193A40050
:10591000B1464FF00008009BA845986822D1043C8E
:1059200006EB040822464146FFF77CFB56F814308C
:10593000D7F808E0013346F814300023A8F104003A
:105940001A4695422DD156F814200099D31A896829
:1059500046F814304246DBB2284605B0BDE8F04FA9
:10596000FFF710BEDAF8081050F828B0D9F8003068
:105970000868039A00FB0B335343019802934A468D
:105980005B46FFF711FE029BB9684A462846FFF7BF
:105990000BFE49F804BB002349F8043008F1010864
:1059A000B9E750F804CF5EF82270ACEB0301B942BE
:1059B0002CBF4FF000094FF00109C91B9C452CBFBB
:1059C0004B4609F1010301600132BAE773B501F1F9
:1059D0008041013900EB8101814201D202B070BDEA
:1059E0000368019304230DEB03020025144612F80B
:1059F000016B013B13F0FF0346EA0525F7D10A6866
:105A00000192042214F8016B013A12F0FF0246EAF7
:105A10000323F7D140F8043B41F80459DCE70023A5
:105A20000122C0E900238360704710B5044668B1C5
:105A3000806830B161688900FDF762FEA068FDF7FB
:105A40004FFE00230122C4E90023A36010BD42F2EF
:105A50001073994270B504460D4602D96FF00F00DD
:105A600070BD43688B4216D204212846FDF732FEF2
:105A700006460028F2D0A16859B162689200FFF78B
:105A8000D1FA6168A0688900FDF73AFEA068FDF7C9
:105A900027FEC4E901560020E2E738B504460D466A
:105AA00019B9FFF7C2FF002038BD42688A4207D10A
:105AB000806892000021FFF7C0FA01232360F2E71B
:105AC000FFF7B3FF29462046BDE83840FFF7BFBFC8
:105AD000884270B505460E460AD04C6840686CB9DD
